{
  "contractName": "Report",
  "abi": [
    {
      "constant": true,
      "inputs": [],
      "name": "hospital_details",
      "outputs": [
        {
          "name": "",
          "type": "string"
        }
      ],
      "payable": false,
      "stateMutability": "view",
      "type": "function"
    },
    {
      "constant": true,
      "inputs": [],
      "name": "patient_details",
      "outputs": [
        {
          "name": "",
          "type": "string"
        }
      ],
      "payable": false,
      "stateMutability": "view",
      "type": "function"
    },
    {
      "constant": true,
      "inputs": [],
      "name": "prescription",
      "outputs": [
        {
          "name": "",
          "type": "string"
        }
      ],
      "payable": false,
      "stateMutability": "view",
      "type": "function"
    },
    {
      "inputs": [],
      "payable": false,
      "stateMutability": "nonpayable",
      "type": "constructor"
    },
    {
      "constant": false,
      "inputs": [
        {
          "name": "hd",
          "type": "string"
        }
      ],
      "name": "setHospital",
      "outputs": [],
      "payable": false,
      "stateMutability": "nonpayable",
      "type": "function"
    },
    {
      "constant": true,
      "inputs": [],
      "name": "getHospital",
      "outputs": [
        {
          "name": "",
          "type": "string"
        }
      ],
      "payable": false,
      "stateMutability": "view",
      "type": "function"
    },
    {
      "constant": false,
      "inputs": [
        {
          "name": "pd",
          "type": "string"
        }
      ],
      "name": "setPatient",
      "outputs": [],
      "payable": false,
      "stateMutability": "nonpayable",
      "type": "function"
    },
    {
      "constant": true,
      "inputs": [],
      "name": "getPatient",
      "outputs": [
        {
          "name": "",
          "type": "string"
        }
      ],
      "payable": false,
      "stateMutability": "view",
      "type": "function"
    },
    {
      "constant": false,
      "inputs": [
        {
          "name": "p",
          "type": "string"
        }
      ],
      "name": "setPrescription",
      "outputs": [],
      "payable": false,
      "stateMutability": "nonpayable",
      "type": "function"
    },
    {
      "constant": true,
      "inputs": [],
      "name": "getPrescription",
      "outputs": [
        {
          "name": "",
          "type": "string"
        }
      ],
      "payable": false,
      "stateMutability": "view",
      "type": "function"
    }
  ],
  "bytecode": "0x608060405234801561001057600080fd5b5060206040519081016040528060008152506000908051906020019061003792919061008b565b5060206040519081016040528060008152506002908051906020019061005e92919061008b565b5060206040519081016040528060008152506001908051906020019061008592919061008b565b50610130565b828054600181600116156101000203166002900490600052602060002090601f016020900481019282601f106100cc57805160ff19168380011785556100fa565b828001600101855582156100fa579182015b828111156100f95782518255916020019190600101906100de565b5b509050610107919061010b565b5090565b61012d91905b80821115610129576000816000905550600101610111565b5090565b90565b610b2f8061013f6000396000f3fe608060405260043610610093576000357c01000000000000000000000000000000000000000000000000000000009004806318769d46146100985780633680f6ee14610128578063389b4fe3146101f05780634c3b90861461028057806351b5545b146103105780637b0f9a36146103d857806395b679911461046857806397be188214610530578063af151ccc146105c0575b600080fd5b3480156100a457600080fd5b506100ad610650565b6040518080602001828103825283818151815260200191508051906020019080838360005b838110156100ed5780820151818401526020810190506100d2565b50505050905090810190601f16801561011a5780820380516001836020036101000a031916815260200191505b509250505060405180910390f35b34801561013457600080fd5b506101ee6004803603602081101561014b57600080fd5b810190808035906020019064010000000081111561016857600080fd5b82018360208201111561017a57600080fd5b8035906020019184600183028401116401000000008311171561019c57600080fd5b91908080601f016020809104026020016040519081016040528093929190818152602001838380828437600081840152601f19601f8201169050808301925050505050505091929192905050506106f2565b005b3480156101fc57600080fd5b5061020561070c565b6040518080602001828103825283818151815260200191508051906020019080838360005b8381101561024557808201518184015260208101905061022a565b50505050905090810190601f1680156102725780820380516001836020036101000a031916815260200191505b509250505060405180910390f35b34801561028c57600080fd5b506102956107aa565b6040518080602001828103825283818151815260200191508051906020019080838360005b838110156102d55780820151818401526020810190506102ba565b50505050905090810190601f1680156103025780820380516001836020036101000a031916815260200191505b509250505060405180910390f35b34801561031c57600080fd5b506103d66004803603602081101561033357600080fd5b810190808035906020019064010000000081111561035057600080fd5b82018360208201111561036257600080fd5b8035906020019184600183028401116401000000008311171561038457600080fd5b91908080601f016020809104026020016040519081016040528093929190818152602001838380828437600081840152601f19601f82011690508083019250505050505050919291929050505061084c565b005b3480156103e457600080fd5b506103ed610866565b6040518080602001828103825283818151815260200191508051906020019080838360005b8381101561042d578082015181840152602081019050610412565b50505050905090810190601f16801561045a5780820380516001836020036101000a031916815260200191505b509250505060405180910390f35b34801561047457600080fd5b5061052e6004803603602081101561048b57600080fd5b81019080803590602001906401000000008111156104a857600080fd5b8201836020820111156104ba57600080fd5b803590602001918460018302840111640100000000831117156104dc57600080fd5b91908080601f016020809104026020016040519081016040528093929190818152602001838380828437600081840152601f19601f820116905080830192505050505050509192919290505050610908565b005b34801561053c57600080fd5b50610545610922565b6040518080602001828103825283818151815260200191508051906020019080838360005b8381101561058557808201518184015260208101905061056a565b50505050905090810190601f1680156105b25780820380516001836020036101000a031916815260200191505b509250505060405180910390f35b3480156105cc57600080fd5b506105d56109c0565b6040518080602001828103825283818151815260200191508051906020019080838360005b838110156106155780820151818401526020810190506105fa565b50505050905090810190601f1680156106425780820380516001836020036101000a031916815260200191505b509250505060405180910390f35b606060008054600181600116156101000203166002900480601f0160208091040260200160405190810160405280929190818152602001828054600181600116156101000203166002900480156106e85780601f106106bd576101008083540402835291602001916106e8565b820191906000526020600020905b8154815290600101906020018083116106cb57829003601f168201915b5050505050905090565b8060029080519060200190610708929190610a5e565b5050565b60008054600181600116156101000203166002900480601f0160208091040260200160405190810160405280929190818152602001828054600181600116156101000203166002900480156107a25780601f10610777576101008083540402835291602001916107a2565b820191906000526020600020905b81548152906001019060200180831161078557829003601f168201915b505050505081565b606060028054600181600116156101000203166002900480601f0160208091040260200160405190810160405280929190818152602001828054600181600116156101000203166002900480156108425780601f1061081757610100808354040283529160200191610842565b820191906000526020600020905b81548152906001019060200180831161082557829003601f168201915b5050505050905090565b8060019080519060200190610862929190610a5e565b5050565b606060018054600181600116156101000203166002900480601f0160208091040260200160405190810160405280929190818152602001828054600181600116156101000203166002900480156108fe5780601f106108d3576101008083540402835291602001916108fe565b820191906000526020600020905b8154815290600101906020018083116108e157829003601f168201915b5050505050905090565b806000908051906020019061091e929190610a5e565b5050565b60018054600181600116156101000203166002900480601f0160208091040260200160405190810160405280929190818152602001828054600181600116156101000203166002900480156109b85780601f1061098d576101008083540402835291602001916109b8565b820191906000526020600020905b81548152906001019060200180831161099b57829003601f168201915b505050505081565b60028054600181600116156101000203166002900480601f016020809104026020016040519081016040528092919081815260200182805460018160011615610100020316600290048015610a565780601f10610a2b57610100808354040283529160200191610a56565b820191906000526020600020905b815481529060010190602001808311610a3957829003601f168201915b505050505081565b828054600181600116156101000203166002900490600052602060002090601f016020900481019282601f10610a9f57805160ff1916838001178555610acd565b82800160010185558215610acd579182015b82811115610acc578251825591602001919060010190610ab1565b5b509050610ada9190610ade565b5090565b610b0091905b80821115610afc576000816000905550600101610ae4565b5090565b9056fea165627a7a72305820d3c820755cd22bdcfc5272b9859e6e769c1aecd83f340dd01ebae5216c7629490029",
  "source": "// SPDX-License-Identifier: MIT\r\npragma solidity >= 0.4.0 <= 0.9.0;\r\n\r\ncontract Report {\r\n    string public hospital_details;\r\n    string public patient_details;\r\n    string public prescription;\r\n       \r\n    //call this function to save hospital data to Blockchain\r\n    function setHospital(string memory hd) public {\r\n       hospital_details = hd;\t\r\n    }\r\n   //get hospital details\r\n    function getHospital() public view returns (string memory) {\r\n        return hospital_details;\r\n    }\r\n\r\n    //call this function to save patient data to Blockchain\r\n    function setPatient(string memory pd) public {\r\n       patient_details = pd;\t\r\n    }\r\n   //get hospital details\r\n    function getPatient() public view returns (string memory) {\r\n        return patient_details;\r\n    }\r\n\r\n    //call this function to save prescription data to Blockchain\r\n    function setPrescription(string memory p) public {\r\n       prescription = p;\t\r\n    }\r\n   //get hospital details\r\n    function getPrescription() public view returns (string memory) {\r\n        return prescription;\r\n    }\r\n\r\n    constructor() public {\r\n        hospital_details=\"\";\r\n\tprescription = \"\";\r\n\tpatient_details=\"\";\r\n    }\r\n}",
  "sourcePath": "C:\\Users\\Sumanth\\Desktop\\code folder\\Medical Report Management & Distribution System on Blockchain\\extension\\contracts\\Report.sol",
  "compiler": {
    "name": "solc",
    "version": "0.5.1+commit.c8a2cb62.Emscripten.clang"
  },
  "schemaVersion": "3.4.16",
  "updatedAt": "2024-02-21T06:37:14.129Z",
  "networkType": "ethereum",
  "devdoc": {
    "methods": {}
  },
  "userdoc": {
    "methods": {}
  }
}